:100000000C945B000C9481000C9481000C94810092
:100010000C9481000C9481000C9481000C9481005C
:100020000C9481000C9481000C9481000C9481004C
:100030000C9481000C9481000C9481000C9481003C
:100040000C94F7010C9481000C9446040C948100EC
:100050000C9481000C9481000C9481000C9481001C
:100060000C9481000C948100F6010000000700024E
:10007000010000030406000000000000000001026F
:100080000408102040800102040810200102040826
:100090001020040404040404040402020202020204
:1000A0000303030303030000232629000025282B54
:1000B000000024272A0011241FBECFEFD4E0DEBFAA
:1000C000CDBF11E0A0E0B1E0E4E8FBE002C00590A4
:1000D0000D92AA34B107D9F711E0AAE4B1E001C04A
:1000E0001D92AA3DB107E1F710E0CAE6D0E004C0D6
:1000F0002297FE010E94BE05C836D107C9F70C94AD
:100100001B010C94000061E0809104010E941A031D
:1001100040E855E260E070E081E591E00E9428014E
:100120000895809102010E94A80290934D0180934E
:100130004C01809100010E94A802880F991F880F2E
:10014000991F805D974090934B0180934A012091C5
:100150004C0130914D01821B930B80529340909340
:10016000500180934F01181619064CF081E090E081
:100170009093500180934F0181E080934E018091D4
:100180004E01882349F066E071E081E591E00E942C
:100190003B0110924E0130C06DE271E081E591E0CB
:1001A0000E943B0160914A0170914B0181E591E011
:1001B0000E94E20165E371E081E591E00E943B016C
:1001C00060914C0170914D0181E591E00E94E20146
:1001D0006DE371E081E591E00E943B0160914F0188
:1001E0007091500181E591E00E94E20167E471E0C5
:1001F00081E591E00E943B0161E0809104010E9451
:10020000810360914F0170915001882777FD80959F
:10021000982F0E94340260E0809104010E948103C3
:1002200060914F0170915001882777FD8095982F3C
:100230000E9434020895CFEFD4E0DEBFCDBF0E940C
:1002400063020E9483000E949100FDCF08950895EB
:10025000CB01BA010E94CC0308950E940D04992796
:1002600008950E941E0408950E943D040895862F5B
:100270000E9484040895CB010E948B040895862F68
:100280000E94840408950F931F938C016DE00E94D7
:1002900037016AE0C8010E9437011F910F9108954C
:1002A0000F931F938C010E943701C8010E944301E4
:1002B0001F910F9108950F931F938C010E943B0192
:1002C000C8010E9443011F910F9108950F931F933E
:1002D0008C010E943F01C8010E9443011F910F91B0
:1002E0000895CB01BA013327442755270E9498046B
:1002F00008952AE00E94710108950F931F938C01C5
:100300000E947901C8010E9443011F910F91089535
:10031000AB01662777270E94790108950F931F93F9
:100320008C010E948801C8010E9443011F910F9116
:100330000895EF92FF920F931F93CF93DF93EC01F9
:100340007A018B0177FF0BC06DE20E943701109597
:100350000095F094E094E11CF11C011D111D2AE0B0
:10036000B801A701CE010E947101DF91CF911F91C9
:100370000F91FF90EF9008950F931F938C010E94AF
:100380009901C8010E9443011F910F910895211501
:10039000310521F4642F0E94370108952A30310578
:1003A00019F40E94990108950E94710108950F9314
:1003B0001F938C010E94C701C8010E9443011F9135
:1003C0000F910895AB01662757FD6095762F0E9427
:1003D000990108950F931F938C010E94E201C801B7
:1003E0000E9443011F910F910895089508951F924F
:1003F0000F920FB60F9211248F939F93AF93BF93D9
:100400008091560190915701A0915801B0915901E6
:100410000196A11DB11D8093560190935701A093A1
:100420005801B0935901BF91AF919F918F910F9057
:100430000FBE0F901F901895609156017091570153
:10044000809158019091590127E0660F771F881F0E
:10045000991F2A95D1F72DE730E040E050E00E9447
:100460006B05CA01B9010895AF92BF92CF92DF9296
:10047000EF92FF920F931F935B016C010E941C028D
:100480007B018C010E941C026E197F09800B910B6D
:100490006A157B058C059D05A8F31F910F91FF90B0
:1004A000EF90DF90CF90BF90AF900895019751F0FB
:1004B000880F991F880F991F02972FB7F8940197FB
:1004C000F1F72FBF089578941092560110925701BA
:1004D000109258011092590184B5826084BD84B590
:1004E000816084BD85B5826085BD85B5816085BD2F
:1004F000EEE6F0E0808181608083E1E8F0E08081D9
:1005000082608083808181608083E0E8F0E0808188
:1005100081608083E1EBF0E0808184608083E0EBA8
:10052000F0E0808181608083EAE7F0E08081846090
:1005300080838081826080838081816080838081EC
:10054000806880831092C1000895809349010895C6
:10055000909149019295990F990F907C8F70982BEB
:1005600090937C0080917A00806480937A008091DF
:100570007A0086FDFCCF2091780080917900992740
:10058000982F88273327822B932B08951F93CF937F
:10059000DF93182FEB0161E00E941A03E12FFF2780
:1005A000E659FF4F8491833051F480918000806838
:1005B00080938000D0938900C093880037C0843036
:1005C00051F480918000806280938000D0938B00F2
:1005D000C0938A002BC0813029F484B5806884BD23
:1005E000C7BD24C0823029F484B5806284BDC8BDF3
:1005F0001DC0863041F48091B00080688093B000C7
:10060000C093B30013C0873041F48091B000806282
:100610008093B000C093B40009C0C038D10514F471
:1006200060E001C061E0812F0E948103DF91CF91E2
:100630001F910895282F3327C90182589F4FFC012D
:1006400094912E563F4FF9018491882381F0E82F31
:10065000FF27E055FF4FE491FF27662329F48081AF
:1006600090958923808308958081892B80830895C4
:10067000482F5527CA0186599F4FFC012491CA0172
:1006800082589F4FFC0194914E565F4FFA0134916E
:100690003323A1F1222331F1233021F48091800012
:1006A0008F7705C0243031F4809180008F7D809356
:1006B000800018C0213019F484B58F7704C022302F
:1006C00021F484B58F7D84BD0DC0263021F4809146
:1006D000B0008F7705C0273029F48091B0008F7D5E
:1006E0008093B000E32FFF27EA55FF4FE491FF27E7
:1006F0008081892319F081E090E0089580E090E006
:100700000895482F5527CA0186599F4FFC0124910F
:10071000CA0182589F4FFC0194914E565F4FFA01D7
:1007200034913323C1F1222331F1233021F480911C
:1007300080008F7705C0243031F4809180008F7D58
:100740008093800018C0213019F484B58F7704C0DD
:10075000223021F484B58F7D84BD0DC0263021F474
:100760008091B0008F7705C0273029F48091B000C8
:100770008F7D8093B000E32FFF27E555FF4FE49175
:10078000FF27662329F4808190958923808308952B
:100790008081892B80830895EF92FF920F931F939E
:1007A0007B018C0122E030E040E050E00E948D05AA
:1007B000205C3D4B404F5F4FCA01B901A801970132
:1007C0000E948D052150304040405040BB2757FDCE
:1007D000BA95A52F942F832F2F5F3F4F4F4F5F4F19
:1007E0008093C50021502093C400E1ECF0E08081AB
:1007F000806180838081886080838081806880833D
:100800001F910F91FF90EF900895982F8091C00055
:1008100085FFFCCF9093C60008958091540190917C
:1008200055012091520130915301821B930B805846
:100830009F4F60E870E00E94580508954091520172
:10084000509153018091540190915501841795075F
:1008500019F48FEF9FEF0895FA01E65AFE4F2081B9
:10086000CA01019660E870E00E9458059093530118
:1008700080935201822F992708958091520190917F
:100880005301909355018093540108951F920F9244
:100890000FB60F9211242F933F934F935F936F9353
:1008A0007F938F939F93AF93BF93EF93FF93409169
:1008B000C600E0915401F0915501CF01019660E826
:1008C00070E00E9458059C01809152019091530163
:1008D0002817390739F0E65AFE4F40833093550107
:1008E00020935401FF91EF91BF91AF919F918F9110
:1008F0007F916F915F914F913F912F910F900FBE1C
:100900000F901F90189508950E94050408958AE09D
:100910000E9484040895CF93DF93EC0103C02196D5
:100920000E94840488818823D1F7DF91CF910895B4
:100930002F923F924F925F926F927F928F929F92EF
:10094000AF92BF92CF92DF92EF92FF920F931F93DD
:10095000CF93DF93CDB7DEB7A0970FB6F894DEBF85
:100960000FBECDBF6B017C0119012A016115710514
:100970008105910521F480E30E9484044BC0662424
:10098000772443015E010894A11CB11C8501060D6A
:10099000171DC701B601A20191010E946B05F80164
:1009A00060830894611C711C811C911CC701B601F5
:1009B000A20191010E946B0569017A01211531059F
:1009C0004105510519F773010894E108F108EA0C93
:1009D000FB1CAA24BB24650111C0F70180818A3069
:1009E00010F4805D01C0895C0E9484040894A10811
:1009F000B108C108D1080894E108F10888279927AF
:100A0000DC0186199709A809B909A816B906CA060A
:100A1000DB0619F7A0960FB6F894DEBF0FBECDBF68
:100A2000DF91CF911F910F91FF90EF90DF90CF90CA
:100A3000BF90AF909F908F907F906F905F904F90FE
:100A40003F902F900895EF92FF920F931F937B0199
:100A50008C0197FF0BC08DE20E94840410950095D5
:100A6000F094E094E11CF11C011D111D2AE030E01E
:100A700040E050E0C801B7010E9498041F910F9117
:100A8000FF90EF90089520E130E040E050E00E94B8
:100A90009804089528E030E040E050E00E94980477
:100AA000089522E030E040E050E00E94980408956C
:100AB00097FB092E07260AD077FD04D049D006D02F
:100AC00000201AF4709561957F4F0895F6F7909580
:100AD00081959F4F0895A1E21A2EAA1BBB1BFD0111
:100AE0000DC0AA1FBB1FEE1FFF1FA217B307E4070D
:100AF000F50720F0A21BB30BE40BF50B661F771F65
:100B0000881F991F1A9469F7609570958095909544
:100B10009B01AC01BD01CF01089597FB092E05266D
:100B20000ED057FD04D0D7DF0AD0001C38F4509502
:100B30004095309521953F4F4F4F5F4F0895F6F701
:100B400090958095709561957F4F8F4F9F4F089539
:100B5000AA1BBB1B51E107C0AA1FBB1FA617B707E3
:100B600010F0A61BB70B881F991F5A95A9F78095FF
:100B70009095BC01CD010895EE0FFF1F0590F491F3
:040B8000E02D0994C7
:100B8400030002000D0042757374656421205661F0
:100B94006C756520746F6F206C6F772C207265768E
:100BA400657274656420746F20312E0A006C696765
:100BB40068743A20002020706F743A20002020646A
:0A0BC400656C61793A20000A000117
:00000001FF
